:020000040800F2
:10000000904D00203D1E00087D1E00087F1E000848
:10001000811E0008831E0008851E000800000000E5
:10002000000000000000000000000000871E000823
:10003000891E00080000000049010008274A000846
:100040008F1E00088F1E00088F1E00088F1E0008DC
:100050008F1E00088F1E00088F1E00088F1E0008CC
:100060008F1E00088F1E00088F1E00088F1E0008BC
:100070008F1E0008A52B00088F1E00088F1E000889
:100080008F1E00085B3100088F1E00088F1E0008BD
:10009000992100088F1E00088F1E00088F1E00087F
:1000A0008F1E00088F1E00088F1E0008012C0008FC
:1000B0008F1E00088F1E0008272200088F1E0008D0
:1000C0008F1E00088F1E00088F1E00088F1E00085C
:1000D0008F1E0008273100088F1E0008833100089A
:1000E0008F1E00088F1E00088F1E0008DFF80CD03E
:1000F00005F0F6F800480047D9020008904D0020AE
:1001000002B472B601780131017062B6013908009B
:1001100002BC704702B472B601780139017062B650
:10012000080002BC7047000062B6704772B67047A4
:100130001C3880F30988704702484FF080510160F5
:100140007047000004ED00E00B4B19680B4A126881
:1001500091420AD0EFF3098020E9F00F08601A609D
:100160001068B0E8F00F80F30988054B0020187084
:100170004EF0040E70470000C4010020C0010020B2
:10018000A9010020134F144CDFF850904FF00008E5
:10019000FA2003F07EFF386880F001003860A06824
:1001A00004F009FF0546206804F005FF0646606874
:1001B000E168401A04F0FFFE494604F0ECFC3146C9
:1001C00004F0E9FC294604F01CFD20616068C4E9E4
:1001D0000280DDE70C080140000000200000C8425A
:1001E00050494F4A0B68101F43F080730B60016841
:1001F00041F0010101604D484B4901600023416815
:10020000491C416000BF00BF00BF00BF1168136000
:1002100084680C4484600468A142F0D20160EEE777
:10022000FEE72DE9FF4101211D2001F05EFB0121C8
:10023000042001F063FB0121084601F04DFB4FF45F
:10024000A06001F00BFA4FF6FF75394FADF8005082
:1002500000248DF803406946384601F095FD694653
:10026000344801F091FD6946334801F08DFD0320CB
:10027000ADF8000010208DF8030002268DF8026012
:100280006946384601F080FD29480121103001609F
:1002900006604720ADF80400ADF80850ADF80A40FC
:1002A000ADF80640254C01A9204601F075FB01215F
:1002B000204601F095FC04B0BDE8F0811F492431CF
:1002C0000A88104480B2904202D20A888242FCD846
:1002D0000A888242FCD3704710B5FFF7A2FF03F0F3
:1002E000FCFF02F0C6FF02F0EBFF03F02BFD02F073
:1002F000ABFA01F0FEFF00F077FE00F095FB104B2B
:1003000043F21E0200210F4804F03AFA0E4B0F4A46
:1003100000210F4804F034FA04F007F8002010BD63
:10032000041000E0FCED00E0FFE0F5050000002017
:1003300000080140000C014000100140000800408E
:10034000A002002085010008A00A00200A00020087
:100350005503000808B5FF4D4FF0640B002195F8D8
:10036000DA0104F071F895F8DA0104F0C5F8FA48FA
:10037000016881F00201016000F04CFE01F093F889
:10038000B5F8E8116FF0480000EB51010123A022FD
:100390004FF48E7002F08AF8B5F8E8116FF0090A90
:1003A0000AEB510140F2131002F074F9042140F2FB
:1003B000191002F075F9DFF8A48332240A20D8F866
:1003C0009810012391FBFBF696FBF0F100FB1167FF
:1003D000B5F8E801052204EB5000C1197B394FF450
:1003E0008E7002F089F8F01B001B00F178011422D6
:1003F00091FBF2F3894602FB1311B9B900F18201B6
:10040000B14202DB6E30B04210DDB5F8E80104EB1A
:100410005000C1197E394FF48F7002F03BF905206E
:10042000002302464946009002F098F90A34D22C83
:10043000C4DBB5F8E8114FF48F700AEB510102F0FC
:1004400029F9022600964446002305220420D8F804
:10045000981002F083F995F8E0014FF01E01002892
:1004600040F21F100CD002F015F90521502002F0C7
:1004700017F90521412002F013F905214C200FE066
:1004800002F008F905214E2002F00AF90521542056
:1004900002F006F90521532002F002F9052143205C
:1004A00002F0FEF803270097B5F8DE1100233A4664
:1004B000052002F093F93221032002F0EBF8042129
:1004C000462002F0EDF80421692002F0E9F8042149
:1004D000782002F0E5F84FF00109CDF8009014F80B
:1004E0009C1F00234A46042002F038F942210320D1
:1004F00002F0D0F80421532002F0D2F80421612048
:1005000002F0CEF80421742002F0CAF80096B0463A
:10051000617800230222042002F020F9002108461D
:1005200002F0B8F861684FF00706A4F19C04009649
:10053000002900DA494201230922052002F04EF980
:100540000A21002002F0A6F8D4F8A4100096002991
:1005500000DA494201230922052002F03FF9142163
:10056000002002F097F8D4F8B4100096002900DAC1
:10057000494201230922052002F030F91E21002002
:1005800002F088F8D4F8B8100096002900DA494241
:1005900001230922052002F021F95221032002F053
:1005A00079F80421412002F07BF804216C2002F04C
:1005B00077F80421472002F073F8052604F18C0433
:1005C0000096B4F91C104FF0000332464FF00400BF
:1005D00002F0C4F86221032002F05CF804215320E9
:1005E00002F05EF80421702002F05AF8042147203E
:1005F00002F056F80096B4F91E10002305220420DC
:1006000002F0ACF87221032002F044F804217520B6
:1006100002F046F80097032394F820101A460420AD
:1006200002F09CF88221032002F034F804214C20CF
:1006300002F036F804214F2002F032F80421532052
:1006400002F02EF80096618C00230522042002F0AF
:1006500085F89221032002F01DF80421482002F0C1
:100660001FF804214F2002F01BF80421442002F05F
:1006700017F80096A18C00230522042002F06EF8E2
:10068000B5F8E8110020213902F004F8DFF8D0A015
:100690003449DAF8400004F07EFA04F0A2FC014686
:1006A000002305220420CDF8008002F097F80421F1
:1006B000562001F0F5FFCDF80080BAF8381000237D
:1006C0000522042002F08AF80421412001F0E8FF0D
:1006D000B5F8E8110020113901F0DCFF00230522F4
:1006E00040F2D2410420009602F078F804214D2017
:1006F00001F0D6FF0421612001F0D2FF042168201F
:1007000001F0CEFFB921322001F0C4FFCDF80090F6
:100710004E46002303220120616802F01FF8B92130
:10072000502001F0B7FF009600230322012021682A
:1007300002F014F8A221032001F0ACFF04214920AB
:1007400001F0AEFF0421642001F0AAFF04216C2017
:100750000AE00000604000200C080140A40C0020CA
:100760001C1000200000C84201F09AFF04216520FF
:1007700001F096FF0748006904F033FC01460323AB
:100780001A460420009701F0E9FF0A2003F081FCDB
:10079000E4E5000000000020A74AA2F183001178E0
:1007A000085C491C1170704700B5FFF7F5FF034660
:1007B000FFF7F2FF03EB002080B200BD10B5FFF79A
:1007C000F3FF0446FFF7F0FF04EB004010BD2DE9F6
:1007D000F0470026984DDFF8649282468846174617
:1007E0003446883D19F80410286802F084FC641C23
:1007F000032CF7DB3946286802F07DFC86EA070403
:100800005146286802F077FC84EA0A04002608E0D2
:1008100018F80610286802F06EFC18F8060044402C
:10082000761CBE42F4DB21462868BDE8F04702F0A2
:1008300062BC10B5804C0020883C84F88800207190
:1008400094F885006C2810D004DC6A281BD06B2833
:1008500004D130E06D2803D0762838D000234CE056
:10086000FFF7ACFFC4F8980010BDFFF79DFF00B282
:1008700044F88C0FFFF798FF00B26060FFF794FF19
:1008800000B2A06010BDFFF787FF04F89C0FFFF7D0
:1008900083FF6070FFF792FF6060FFF78FFFA0603B
:1008A000FFF782FFA081FFF77FFFE081207C80F0CF
:1008B0000200207410BDFFF777FF04F1AC046080E4
:1008C000FFF772FFA080207880F0010010E0FFF7B2
:1008D00063FFFFF773FF04F1AC04A060FFF76EFF46
:1008E000E060FFF761FFFFF757FF207880F004001A
:1008F000207010BDFFF750FF5B1C94F886009842F3
:10090000F8DC10BD70B54C4C883C206802F0CFFB81
:10091000002848D0206802F0D7FB49490A785AB12C
:10092000012A0FD0022A11D00023032A13D0042A4F
:1009300019D0052A1CD035E0242801D1012008E077
:10094000002006E04D28FBD1022002E03E28F7D12E
:100950000320087026E0802801D90B7022E084F87B
:1009600086000420F5E705220A7084F8850019E066
:1009700004F18604304A6578A2F18302A8546078B5
:1009800000F10100C0B2607014F88629904205D3CE
:1009900084F88730012020710B7001E0207908B1C4
:1009A000FFF747FF012070BD08B500244FF4E13187
:1009B000244802F0D5FA204D883D00262860082002
:1009C00003F067FBE01704EB907020F00300201A9F
:1009D000641C8DF8006001280CD002280ED003287A
:1009E00010D0002211466C20FFF7F1FE00221146C4
:1009F0006D200AE0002211466A2006E0002211461E
:100A00006B2002E0012269467620FFF7E0FE02201B
:100A100003F03FFB02E000BFFFF774FF286802F01D
:100A200046FB0028CBD0F7E7034B48F20F028C3B84
:100A30000021054803F0A4BE2C0D0020128C0008F4
:100A40004400002000440040A90900082DE9F05F9F
:100A5000044600E0641C2278202AFBD0092AF9D041
:100A6000DFF870A4D0B24FF000092D2802D02B2A55
:100A700004D004E0DFF860A44FF00009641C0026F5
:100A80003746DFF858B410E004F09AFA0546884675
:100A900000225B463046394604F0A5F943462A4613
:100AA00004F0FBF806460F46641C2078303809280D
:100AB000EAD920782E281CD10025DFF8208413E005
:100AC00004F07EFA2A46434604F0FDF932463B46DE
:100AD00004F0E3F806460F4600225B4628464146EE
:100AE00004F081F90546884614F8010F30380928CA
:100AF000E6D922780020F749652A01D0452A42D15B
:100B000014F8012F4FF000082D2A02D02B2A02D012
:100B100002E04FF00108641C00256FF02F0C05E087
:100B200005EB85030CEB4303D518641C2278A2F176
:100B30003003092BF4D94FF49A72954205D9154622
:100B4000E74AE84B04F04FF9323D322DF8D2E64C3B
:100B5000082D0BD30022234604F045F9083DF7E7A2
:100B60000022234604F03FF96D1E00E05C46002D94
:100B7000F6D1B8F1000F06D002460B463046394692
:100B800004F0A1F903E032463B4604F02CF94A4652
:100B9000534604F028F9BDE8F05F04F03BBA2DE9B4
:100BA000F041002580462E462F46044603F072FF92
:100BB000016800E0641C2078085C2028FAD04046D8
:100BC00009E01DB105EB85025206150E10F8012B48
:100BD000303D2A44D5B2221A022AF2DC09E01EB1C5
:100BE00006EB86025206160E10F8012B303E3244F8
:100BF000D6B28442F3D820782E280ED1641C00206F
:100C000007EB8702570022788B5C202B02D1303F04
:100C10001744641C401C0428F2DBB44806214643F8
:100C200007EBC70000EB071006EB8000B0FBF1F00C
:100C3000AF494D4300EBC510BDE8F0812DE9F04709
:100C40000027AC4DAC4C0646B8464FF001092428AD
:100C500015D02146A5F5047049782C2E15D02A2EE2
:100C600013D022460D2ED2787DD00A2E7BD00F29AC
:100C700002D24654491C6170002A75D08DE084F878
:100C80000080404684F8018086E000F801802178E9
:100C900029B12279012A22D0022A6BD073E084F88C
:100CA0000480017847296ED1417850296BD1817831
:100CB000472902D0522909D065E0C178472962D17D
:100CC000007941285FD184F804905CE0C1784D2917
:100CD00059D10079432856D10220207153E00229CE
:100CE0000CD003290ED0042913D0052915D00629CC
:100CF0001AD0072920D0092937D044E07F48FFF7D0
:100D00004EFF04E0007853283DD1E8684042E86097
:100D100039E07A48FFF743FF04E00078572832D1E2
:100D20002869404228612EE00078302801D901204E
:100D300000E00020286226E00020DFF8C0C1024663
:100D40000BE02E290DD000EB80004000A1F1300314
:100D5000092B01D830380844521C1CF80210002915
:100D6000EFD168620FE025E014E06448FFF76EFE03
:100D7000686108E0072906D16048FFF767FE60490F
:100D800003F009FFE8612078401C207084F801809E
:100D90002A2E0CD0A0787040A070207908B1C5F838
:100DA00008900FB1012800D00020BDE8F08784F83A
:100DB0000390F2E772B18246007800F01EF9060156
:100DC0009AF8010000F019F93044A178C0B28842C5
:100DD00000D1012784F80380DFE72DE9F041464C7C
:100DE000444D444E207A2C3500274FF0010802284C
:100DF00007D0032816D0062822D0122831D0002090
:100E00001AE768683061A868F06028694FF47A7161
:100E100090FBF1F004F0C6F87061607A306284F8FB
:100E20000B802DE06879C00702D02879032803D011
:100E30000020607210B123E00120FAE737621FE062
:100E4000E87AC00702D0A87A032803D00020607295
:100E500010B102E00120FAE7376295F82F007062C6
:100E60000EE0686904F0A7F8F061A86942F2107119
:100E700090FBF1F080B204F09EF8B06184F80C8031
:100E8000E07A217B0840BBD0E77227730120D3E6CC
:100E90002DE9F04718494FF000090A46CE795579F7
:100EA00093792C18B2F80EC04FF00108E4B24A460C
:100EB000092E70D2DFE806F00805292F363D4D5D7A
:100EC0006300622803D0CA71B5281BD063E00220FA
:100ED0004DE000000000F03F0000F0BF00002440A3
:100EE0009A647EC50E1B514A84D7974140420F0039
:100EF0002D310100700F002046000020600D002001
:100F00001BC74D4281F8078045E00322CA718872F1
:100F1000487188713FE00422CA714C71E2188A71ED
:100F2000087238E00522CA714C71E2188A71C881D2
:100F300031E00625CD710CEB00204C71234480B2CA
:100F40008B71C881B0F5007F01D9CA81CA710A824C
:100F500021E04C71E2188A710A8A402A01D22B4B97
:100F60009854521C90B20882604514D10720C87171
:100F700011E00823CB7185420DD0CA710BE0CA7114
:100F8000834208D121482C38C0F80880FFF725FF9C
:100F900008B14FF00109484607E74FF416511C48C5
:100FA00001F0DEFF194C2C3C20600020606019200D
:100FB00003F06FF812E0606810B101280ED105E06F
:100FC000206802F081F8FFF739FE04E0206802F0A3
:100FD0007BF8FFF75DFFA16A0844A062206802F079
:100FE00066F80028E3D0E6E7084B48F21402303BED
:100FF0000021AFF2590003F0C3BB3038C0B209285A
:1010000001D9C01FC0B200F00F0070479C0F002034
:10101000003801402DE9F04FFF48CFB0FF4DB0F848
:10102000E88168204A900A204E904FF4B07648211B
:101030003B9502A803F04BFD482114A803F047FD9F
:10104000242126A803F043FD24212FA803F03FFD0F
:10105000F34F312047900024786803F0A3FFDFF8B6
:10106000C493494603F097FDDFF8BCB3594603F03B
:10107000C8FD8246386803F095FF494603F08BFDB2
:10108000594603F0BEFD3C9004F07EFB39903C983D
:1010900004F03AFF3A90B02049902946504603F0B8
:1010A000B0FD4FF07E5103F073FD054608EBD87993
:1010B0004FEA690003F076FF2946009003F06BFDCC
:1010C000834603F08EFFD94D4B9028463A9903F0A2
:1010D00062FDD74A0146104603F005FD03F081FF8B
:1010E00046902846399903F056FD0146584603F0CC
:1010F000FAFC03F076FF48900A250DF1980B06EBF9
:10110000D6765046009F3B9903F07BFD4FF07E5111
:1011100003F03EFD0146384603F03DFD019070109E
:1011200003F040FF3890404603F03CFF42902846D1
:1011300003F038FFBF4903F02EFDBF4903F061FD06
:101140003B9903F05EFD429903F025FD4FF0FF311E
:1011500003F097FD07464FF0804104F0D5FBB749F7
:1011600003F0C1FC04F096FF0090B549384604F046
:10117000E1F93F9003200BF804002FA86FB2075548
:101180003C993F9803F001FD8046409004F0FCFA42
:10119000009903F000FD0146389803F0A4FC03F029
:1011A00020FF0DF1080A2AF81400404604F0ACFEB6
:1011B000009903F0F0FC0146019803F094FC03F061
:1011C00010FF0DF1500828F81400641C03200BF8E0
:1011D00004002FA807553C993F9803F084FC4190E8
:1011E00004F0D2FA009903F0D6FC0146389803F0D7
:1011F000CCFC03F0F6FE2AF81400419804F084FEBB
:10120000009903F0C8FC0146019803F06CFC03F060
:10121000E8FE28F81400641C00200BF804002FA836
:101220000755419804F0B0FA009903F0B4FC014668
:10123000389803F058FC03F0D4FE2AF814004198C3
:1012400004F062FE009903F0A6FC0146019803F049
:101250009CFC03F0C6FE28F81400641C00212FA893
:101260000BF804100755409804F08EFA009903F02B
:1012700092FC0146389803F088FC03F0B2FE2AF88D
:1012800014005746409804F03FFE009903F083FC99
:101290000146019803F079FC03F0A3FE28F814003E
:1012A000641C0A355A2D7FF742AF00244FF0010A23
:1012B0004E9803F077FE0546399903F06CFC3890A0
:1012C00028463A9903F067FCCDF8EC0038F9140091
:1012D00003F068FE83463B9903F057FC03F081FE60
:1012E0003C9037F9140003F05DFE0546389903F091
:1012F000FAFB03F076FE3D9058463B9903F0F3FB72
:1013000003F06FFE83462846389903F03EFC03F055
:1013100068FE26A9095DCDE900A1DDE93C32594608
:1013200001F084F8E00710D038F9141037F91400F0
:10133000091F01F0AFF94FF0FF3000902FA80023F4
:1013400001570322052001F009FA641C242CBDDB9F
:10135000FF2000904FEA690170100123032201F081
:101360002FF96FF006004FEA690100EB66000123D8
:10137000042201F0C1F803204FEA690100EB660086
:101380000123052201F0B8F86FF0050101EB6901B6
:1013900070100123042201F089F84A9803F002FE3C
:1013A00004463A9903F0F7FB05464B9803F0FAFD23
:1013B0000746294603F0E9FB03F013FE804620466A
:1013C000399903F0E8FB0446499803F0EBFD8146A8
:1013D000214603F088FB03F004FE06462946384602
:1013E00003F081FB03F0FDFD07462146484603F06C
:1013F000CCFB03F0F6FD0024CDE900A4554643469E
:101400003246394601F012F8479803F0CBFD074603
:101410003A9903F0C0FB15E060400020AC87CD3E58
:10142000300D002035FA8E3C000020410000A04025
:1014300000003043DA0F49400000344300809043FD
:10144000000088410646489803F0ACFD83463146CB
:1014500003F09BFB03F0C5FD81463846399903F044
:101460009AFB0746469803F09DFD8246394603F0F5
:101470003AFB03F0B6FD80463146584603F033FB95
:1014800003F0AFFD06463946504603F07EFB03F0FD
:10149000A8FDCDE900544B464246314600F0C6FF58
:1014A0004FB0BDE8F08F2DE9F8430123BE220E2195
:1014B0004C2001F021F80C21AD2001F0EBF80421C3
:1014C0007F2001F0EDF80A25DFF8AC80A94600BFC7
:1014D000D8F89460012396FBF9F109FB1167EC1B26
:1014E00004F14C000522092100F0E0FFF01B284424
:1014F000643800280CD006DC10F1B40F2CD010F1A9
:101500005A0F16D130E05A280AD0B42811D123E05E
:1015100004F14900002101F0BDF805214E2006E04C
:1015200004F14900002101F0B5F80521452001F042
:10153000B7F80A35BE2DCBDB1921A02001F0AAF89F
:101540004FF0FF300090002303220420D8F89410BD
:1015500001F004F9BDE8F88304F14900002101F02D
:1015600099F805215320E2E704F14900002101F038
:1015700091F805215720DAE7A40C0020324810B575
:10158000016841F0010101604168304A1140416049
:1015900001682F4A11400160016821F48021016037
:1015A000416821F4FE0141604FF41F01816000F0A9
:1015B00005F828494FF00060086010BD224800215E
:1015C000026842F4803202604FF4A063026801F1C5
:1015D000010112F4003F01D19942F7D1016889035A
:1015E00030D51D490A6842F010020A600A6822F0EC
:1015F00003020A600A6842F002020A604168416020
:1016000041684160416841F480614160416821F472
:101610007C114160416841F4E8114160016841F08A
:101620008071016001688901FCD5416821F00301E6
:101630004160416841F0020141604168C1F38101AC
:101640000229FAD170470000001002400000FFF8A4
:10165000FFFFF6FE08ED00E00020024018490843B5
:1016600018490860704770B50F21C47802780123CB
:101670004FF0E026DCB1134C246804F4E064C4F5B8
:10168000E064250AC5F10404E9404578A540847862
:101690000C402C4321010C4C1155007800F01F0127
:1016A0008B40400906EB8000C0F8003170BD02F0AD
:1016B0001F008340500906EB8000C0F8803170BDE8
:1016C0000000FA050CED00E000E400E001684FF6D0
:1016D000FE72114001600021016041608160C160C3
:1016E0005749574A0839904203D1486840F00F00E3
:1016F00006E0534A1432904204D1486840F0F000AA
:10170000486070474E4A2832904203D1486840F4FE
:101710007060F5E74A4A3C32904203D1486840F491
:101720007040EDE7464A5032904203D1486840F499
:101730007020E5E7424A6432904203D1486840F4A1
:101740007000DDE73E4A7832904203D1486840F0AD
:101750007060D5E73B4A111F904203D1086840F002
:101760000F0006E0374A1432904204D1086840F076
:10177000F00008607047334A2832904203D108686D
:1017800040F47060F5E72F4A3C32904203D108687C
:1017900040F47040EDE72B4A50329042EAD108689D
:1017A00040F47020E5E730B5036847F6F0729343E4
:1017B0000C6A8A682243D1E904452C4322438C6990
:1017C0002243CC6922434C6A22438C6A22431A4347
:1017D0000260CA6842600A6882604968C16030BDC0
:1017E0000021016041608160C160016141618161EE
:1017F000C16101624162816270470029016802D0C3
:1018000041F0010102E04FF6FE72114001607047A5
:10181000002A026801D00A4300E08A430260704750
:1018200041607047406880B27047C10003D50549E8
:10183000091F086070470249083948607047000076
:1018400008000240080402403149086070473149ED
:1018500010B54A6812F00C032F4A03D0042B01D0B4
:10186000082B26D002604A682C4B02F0F0021209C5
:101870009C5C0268E24042604C6804F4E064240A24
:101880001C5D22FA04F484604C6804F460544FEA4E
:10189000D4241B5D22FA03F2C26049681F4B01F495
:1018A00040414FEA91311B1F595CB2FBF1F10161DC
:1018B00010BD4A684B6802F470124FF0020413F432
:1018C000803F04EB924202D04B689B0301D5144B3E
:1018D00000E0114B5A43C5E70E4A0029516901D077
:1018E000014300E08143516170470A4A0029916930
:1018F00001D0014300E0814391617047054A00290E
:10190000D16901D0014300E08143D16170470000FB
:10191000D80042420010024000127A005C00002011
:1019200000093D0030B502884C8802F441530A8812
:10193000CD8822438C882C4322430C8922434C8936
:1019400022438C892243CC8922431A430280828B12
:1019500022F400628283098A018230BD0021018065
:1019600041808180C180018141818181C1810721C4
:10197000018270470029018802D041F0400101E056
:1019800021F0400101807047002A828801D00A437B
:1019900000E08A438280704730B50288AE4BAF4C7E
:1019A00098420DD0A0420BD0B0F1804F08D0AC4D82
:1019B000A84205D0AB4DA84202D0AB4DA84203D1FE
:1019C00022F070054A882A43A84DA84206D0A84DA7
:1019D000A84203D022F44075CA882A4302808A882C
:1019E00082850A88028598420AD0A04208D0A14A7E
:1019F000904205D0A04A904202D0A04A904201D124
:101A0000097A01860121818230BD30B5028C22F431
:101A100080720284028C8388848B22F4007224F00A
:101A200073050C882C430D892D0642EA15454A881A
:101A3000120645EA1242884DA84202D0874DA842BC
:101A400015D122F400654A8923F44053120645EA71
:101A5000124222F480658A88120645EA12428D8974
:101A60002D0543EA1545CB891B0545EA13438380C1
:101A70008483C9888187028430BD028B22F440624E
:101A80000283028B42EA01220283704770B5048C04
:101A900024F010040484068B048C26F473461B0780
:101AA00046EA1343120643EA12420D056A4B2D0C17
:101AB00098420ED0694B98420BD0B0F1804F08D0BD
:101AC000674B984205D0674B984202D0664B9842CC
:101AD00005D124F02001294341F0100104E024F055
:101AE000A0030B4343F010010283018470BD028BFD
:101AF00022F00C020283028B0A430283704730B546
:101B0000048C24F001040484058B048C1B0542EA38
:101B1000134325F0F305504A2B4390420ED04F4A11
:101B200090420BD0B0F1804F08D04D4A904205D082
:101B30004C4A904202D04C4A904202D124F0020218
:101B400001E024F00A020A4342F001010383018408
:101B500030BD2DE9F0410C46002549880746012695
:101B600001B90225A288012A00D1022620882389F2
:101B70000028384610D0FFF789FFE1883846FFF784
:101B80007CFF2389324629463846FFF7B8FFE188B3
:101B90003846BDE8F041AAE7FFF7B1FFE1883846D3
:101BA000FFF7A5FF2389324629463846FFF76EFF27
:101BB000E1883846BDE8F0415FE74FF6FF7181806C
:101BC00000210180C18041800172704700210180A5
:101BD00041808180C180018141818181C1817047C3
:101BE0000029018802D041F0010101E021F001014A
:101BF00001807047002A828901D00A4300E08A43AD
:101C000082817047028922F070020A430281704784
:101C100010B5048942EA0323E4B20B432343038152
:101C200010BD828B22F008020A438283704702892A
:101C300022F00702028102890A4302817047028969
:101C400022F08002028102890A4302817047818664
:101C50007047C94301827047002C014000340140A5
:101C60000004004000080040000C0040001000404C
:101C70000014004000400140004401400048014081
:101C800030B50446008A85B00D464CF6FF71084019
:101C9000E98801432182A1894EF6F3100140A8880A
:101CA0002A8910436A890A431043A081A08A4FF60B
:101CB000FF410840A9890143A1826846FFF7C7FD9B
:101CC0003048844201D1039800E00298A1890904B8
:101CD000002900EBC00101EB0010296802DA4FEA8D
:101CE000410101E04FEA8101B0FBF1F06422B0FB59
:101CF000F2F14FEA01114FEA11136FF018056B432F
:101D000000EB8300A3891D044FF0320306D503EBDB
:101D1000C000B0FBF2F000F0070005E003EB00109C
:101D2000B0FBF2F000F00F000843208105B030BD99
:101D30000029818902D041F4005101E021F40051D1
:101D40008181704710B5C1F3421301F01F040121D6
:101D5000A140012B07D0022B07D01430002A0268C3
:101D600005D00A4304E00C30F8E71030F6E78A4368
:101D7000026010BD002A828A01D00A4300E08A4333
:101D800082827047003801402DE9F041CB78002570
:101D900003F00F02DB0601D58B781A430B884FF056
:101DA0000F0813F0FF0F4FF0010C1CD0D0F80040CB
:101DB0000E880CFA05F31E409E4210D1AF0008FABF
:101DC00007F624EA060602FA07F43443CE78282EF2
:101DD00002D0482E02D002E0436100E003616D1C96
:101DE000082DE5D304600B88FF2B1DD9446800251E
:101DF00005F108060CFA06F30E881E409E420FD12C
:101E0000AF0008FA07F624EA060602FA07F434439C
:101E1000CE78282E00D14361CE78482E00D10361C0
:101E20006D1C082DE4D34460BDE8F0814FF6FF71CE
:101E30000180022181700421C17070471448154946
:101E4000026800608A4203D0134880471348004765
:101E5000134E4FF0090030601248016821F07061A4
:101E6000016041020160104C182020600F491048A9
:101E700008601048D0F800D040680047FEE7FEE751
:101E8000FEE7FEE7FEE7FEE7FEE7FEE7FEE7FEE72A
:101E9000F04F0020EFBEADDE7D150008ED0000081C
:101EA0001810024004000140140C0140000C0140D5
:101EB0004434434400F0FF1F10B501F02EFA764879
:101EC00000240068847200F0F1F801F03FFB7348D1
:101ED000046010BD704810B50068714A002181721D
:101EE000D2794272C172084601F038FA4FF400719B
:101EF000002001F038FA1021002001F040FA4021C2
:101F0000002001F0C5FA8021002001F0B6FA00207F
:101F100001F083FA634890F82C10002001F0E3FAF6
:101F2000002001F06AFA0021012001F01CFAC02112
:101F3000012001F0A2FA2021012001F020FA002165
:101F4000012001F033FA4FF4C061022001F00BFAD6
:101F50004FF48071022001F090FA0021022001F07C
:101F600025FA2021022001F00AFA0021032001F0C5
:101F7000FAF94FF48871032001F08AFA4021032016
:101F800001F0B1FA4FF44051032001F00FFA0021A3
:101F9000032001F0F4F9002001F012FE3F49012076
:101FA000086010BD4048807A002802D03B490520D7
:101FB00008607047394904200860704739481C3868
:101FC0000178202901D1002101707047704710B1BC
:101FD00034481838704730490820096808820020C2
:101FE000704710B12F48183870472B4908200968EE
:101FF000088200207047284910B50A68212802D0BD
:10200000202808D01BE0107800F07F00212816D18E
:10201000AFF231010CE01078202300F07F0121485D
:102020001C38212901D0037009E0AFF25D01037073
:1020300029B10020916150828847002010BD022004
:1020400010BD15490968097801F07F01212903D1E4
:10205000022803D0222801D00220704700207047B8
:102060001049103901F0D8BB0E49083901F0D4BB32
:1020700009490968C978042901D900207047094A2B
:10208000303202EBC10101F0C7BB09B9012801D907
:1020900002207047002070478401002004010020C6
:1020A000278C0008880000201C46002006480121DB
:1020B00001600021054A0160031D19604FF4E051E1
:1020C0001180016000207047405C004090010020BA
:1020D00010B51949032001F045FAC1B2164801F0C4
:1020E0008DF8BDE81040032001F087B9704708B5AE
:1020F000124800218DF80010006805281AD11048F8
:102100000268521C0260062A14D1016069460D481B
:1021100001F08FF89DF80020002A0BD0C02109485B
:1021200001F0C8FE9DF80010012001F0D2F9012055
:1021300001F053F908BD0000DC0F0020040100206D
:10214000080100201C45002070B5144D2868144C6F
:1021500060806088134E31880840800507D54FF6AF
:10216000FF5028602078401C2070FFF7C0FF608877
:1021700031880840000401D501F0F8FD60883188FD
:102180000840400507D54FF6FF30286006484068F4
:10219000BDE87040004770BDD6E70000445C0040D9
:1021A00026010020900100208800002070B5824C9C
:1021B000A01DA179072933D242784088282A06D069
:1021C0003A2A06D03B2A06D0062A1AD028E02087D1
:1021D00026E0608724E0A087618F6422514300EBF2
:1021E000800001EB4000C0EBC00000EB40006E211E
:1021F000B0FBF1F002F0DFFE704902F002FD206456
:102200000EE0050B2177C0F30B0002F0D4FE6C4901
:1022100002F0C1FC6B4902F0F4FC04EB850108629A
:102220000020607670BD70B56748008840F380027A
:102230006548521C243000886349283109880025EC
:102240005D4CB1F5617F02D925606576257101216C
:10225000C2B341F28832904244D341F68A3290426E
:1022600040D2226872B3A0F598508838C21700EBAC
:102270005270627EC0F3C700002A18D1637963B33D
:102280004D490222891D012B07D0022B10D0032BB0
:102290000DD12379132B1DD308E07E2807D0237995
:1022A000132B03D258542079401C2071627170BDE9
:1022B0007D2808D07E2809D0227950542079401CEE
:1022C000207170BD0EE003206071FAE7FFF76EFF2A
:1022D0006571F6E780F02000E4E77E28F1D12571F2
:1022E0006171EEE7B0F57A6FEBD22160657625710A
:1022F000E7E7F0B589B044212F4802F0E8FB01215F
:102300000420FFF7FBFA06A8FFF790FD4020ADF888
:10231000180028208DF81B0002258DF81A5006A9F8
:102320002A48FFF731FD1E208DF81C0003208DF890
:102330001D008DF81E5001268DF81F6007A8FFF7BD
:1023400092F96846FFF739FC4FF6FF70ADF80400CC
:1023500047201D4FADF800000024103FADF80640A7
:10236000ADF8024069463846FFF716FBADF80C4061
:10237000ADF81060ADF80E50ADF81240ADF8144055
:1023800003A93846FFF7E5FB50213846FFF73AFC32
:1023900004213846FFF74BFC80213846FFF74FFCFD
:1023A00001213846FFF71CFC012206213846FFF7C1
:1023B00021FC09B0F0BD00001C10002000002041ED
:1023C000666686400040034510080040000C01404E
:1023D00010B5B0F5B07F1ADA124BB3F8E8318B4282
:1023E00015DD002813DB002911DB01EB410303EBB2
:1023F000C10100EB4111CB1000F0070080240A4915
:10240000C440012A04D032B1C85C6040C85410BD39
:10241000C85C2043FAE7CA5C6FF0800404412240A4
:10242000CA5410BD60400020601000202DE9FE4F0E
:102430000646884692469B46951B01D5C5F1000588
:10244000BBEB080100D549420024601E8946564571
:1024500002DA0121009100E00090D84500DA012065
:102460000190C9F10000A5EB0907029000E024B932
:10247000414630460C9AFFF7ABFF201EA4F1010441
:1024800000DC0D9C564501D1D8450DD0029978004D
:10249000884203DD0099A7EB09070E44A842E6DA5B
:1024A00001992F448844E2E7BDE8FE8FF0B501EBC7
:1024B000410404EBC10400EB441400F00700C0F138
:1024C0000705E4100120A840C5B20A488F18B0F8EB
:1024D000E861A0F54050B74208DD721A06E0015DE0
:1024E0000BB1294300E0A94301552C34521EF6D20A
:1024F000F0BD0000604000202DE9F04301EB4104F5
:1025000004EBC10100EB4111C91000F00705DFF831
:10251000ACC04FF0FF09002D01DC082A13DA29FABC
:1025200005F0C5F108054C46521B03D552429440B4
:10253000204000221CF801400BB1044300E084431A
:102540000CF80140491CD01002F00708002823DDD8
:102550004FF6FC720240002A12DD95100CEB0107C9
:1025600013B14FF0FF3600E00026002447F8246046
:10257000641C6D1EFAD100F00300114400280BDD2D
:102580000A4604460BB1FF2500E000250CF8025076
:10259000521C641EFAD10144B8F1000F0CDDC8F1E1
:1025A000080209FA02F01CF80120C0B20BB1024384
:1025B00000E082430CF80120BDE8F08360100020A9
:1025C0002DE9F0470646089F88469A4642B11446D0
:1025D00000256042032101EB40000FFA80F955E02D
:1025E000BDE8F0471A46FFF7F3BEF80705D0A8EBA1
:1025F000050130195246FFF7EBFEB80705D5A8EBE9
:10260000040170195246FFF7E3FE780705D5A8EBE1
:102610000401701B5246FFF7DBFE380705D5A8EB17
:102620000501301B5246FFF7D3FEF80605D508EB2F
:102630000501301B5246FFF7CBFEB80605D508EB67
:102640000401701B5246FFF7C3FE780605D508EB60
:10265000040170195246FFF7BBFE380605D508EB9A
:10266000050130195246FFF7B3FEB9F1000F05DA44
:1026700009EB8500801D0FFA80F906E0291B09EBA4
:1026800081000A300FFA80F9641E6D1CA542ACDD92
:10269000BDE8F087014AC2E90301704764010020E8
:1026A000F0B52B4F294D203817F8313007EBC10713
:1026B0002E6979787F68C9085943C91C00FB0170ED
:1026C000D5F80CC010F8011F06EB46026144E96022
:1026D00002EBC60205780CEB421202F00704A5F2E9
:1026E0005F15D2106D428D4224DB1A4DB5F8E851CA
:1026F000ED1A6D1EB5421DDB00291BDB002E19DB18
:102700001549801CF4B10025C4F1080E10E08E5C60
:102710000778E7403E438E5410F8016B06FA0EF638
:102720008F1897F801C046EA0C067E702C326D1C9B
:102730009D42ECDBF0BD8D5C10F8016B35438D5490
:102740002C32641C9C42F6DBF0BD000064010020CA
:102750001400002060400020601000202DE9F04FA0
:102760008BB083460D4614469A4600272C221A4900
:102770006846DDF8508002F091F9002D02DB5946E1
:10278000202002E06D4259462D20FFF789FF2E469A
:10279000E9461CE059F8241096FBF1F095FBF1F2A4
:1027A00001FB125650EA0A0104D1621E904501D085
:1027B00028B927B159463030FFF772FF0127611E53
:1027C000884503D159462E20FFF76AFF641E002C6E
:1027D000E0DC0BB0BDE8F08FA08C00082DE9F04FD5
:1027E0008BB083460E4614469A4600272C22154984
:1027F0006846DDF8508002F051F93546E9461CE0A4
:1028000059F8241095FBF1F096FBF1F201FB1265EB
:1028100050EA0A0104D1621E904501D028B927B1BF
:1028200059463030FFF73CFF0127611E884503D130
:1028300059462E20FFF734FF641E002CE0DC0BB05D
:10284000BDE8F08FCC8C00082DE9F04FA5B0012138
:102850004FF4C050FFF749F8012144F20200FFF79E
:102860004DF819A8FEF7BCFFFD4819904FF4005031
:1028700022904000002423908020CDE91E041D9466
:102880004FF446602094CDE91B40F6481A902194FD
:10289000F548FEF71BFF19A9F348FEF784FF0CA8C3
:1028A000FFF7C4FA4FF0400BADF830B018208DF8A8
:1028B000330003208DF832000CA9EC48FFF764FACE
:1028C0000CA8FFF7B3FAA020ADF8300004208DF873
:1028D000330003208DF832000CA9E448FFF754FAC6
:1028E0000DA8FFF73BF84FF44047ADF83470ADF852
:1028F0003840ADF83C404FF4007AADF83640ADF8C2
:102900003A40ADF83EA0ADF84240ADF844400DA9C4
:10291000D748FFF707F80121D548FFF72BF801A8A2
:10292000FEF75EFFD0482830FEF7D0FED04802A95F
:102930000C300190CB4810254FF02C08A1E8210164
:102940008020CDE9054007944FF440590894CDE923
:102950000949C54801A928300B94FEF724FFC54951
:102960000126680208603146C348FEF746FF01228F
:102970000221BF48FFF708F8A802ADF83000182080
:102980008DF8330003208DF832000CA9BB48FFF707
:10299000FBF94FF42040ADF8300004208DF83300EF
:1029A00003208DF832000CA9B448FFF7EDF90DA80B
:1029B000FEF7D4FFADF83470B14FADF83840ADF844
:1029C0003C40ADF83640ADF83A40ADF83EA0ADF829
:1029D0004240ADF844400DA93846FEF7A3FF01215F
:1029E0003846FEF7C7FF01A8FEF7FAFEDFF888A217
:1029F0000AF1280A5046FEF769FEA14802A90C30E8
:102A000001909848A1E821018020CDE90540079474
:102A10000894CDE9094901A950460B94FEF7C3FE7D
:102A200001215046FEF7E9FE012202213846FEF759
:102A3000ABFF2F01ADF830704FF0280A8DF833A0AE
:102A400003208DF832000CA98848FFF79DF9ADF8F6
:102A500030708DF833A003208DF832000CA9874820
:102A6000FFF792F912A8FFF7A8F84FF6FF70ADF83C
:102A70004C00ADF84840ADF84E40ADF84A4012A9C0
:102A80008048FEF789FF50217E48FFF7BBF80022FF
:102A9000322311467B48FFF7BBF804217948FFF742
:102AA000C6F8012202217748FFF7A4F850217548A3
:102AB000FFF7CDF81B208DF890008DF891408DF830
:102AC00092408DF8936024A8FEF7CDFD01216D485A
:102AD000FFF786F8ADF8306018208DF8330003203A
:102AE0008DF832000CA96548FFF74EF912A8FFF7E0
:102AF00064F80A20ADF84C00DFF88CA1ADF848402E
:102B0000ADF84E40ADF84A4012A95046FEF744FFDA
:102B100015A8FFF75BF8ADF856607020ADF85400CB
:102B20000220ADF85840ADF85A00ADF85C00ADF8A1
:102B3000607015A95046FEF768FF08215046FFF760
:102B400070F801A8FEF74CFE474F14373846FEF7E1
:102B5000BDFD4E4E434802A90196A1E821098020FF
:102B6000CDE90604C001CDE90A90089401A90994B1
:102B70003846FEF718FEFF222D2106F12D0001F048
:102B80009FFF2D21304601F0A2FF06F15A05F020EB
:102B9000AC71E8810021084601F0E8FB287025B0FF
:102BA000BDE8F08F10B501F06BFB2F4C083C20689E
:102BB000800521D5206B20F001002063606840F47F
:102BC000007060602A4801890906FCD400212E4863
:102BD000FFF706F8E0694FF6FE710840E0612C4807
:102BE000D0F8E4012C30A062284860622C202062DA
:102BF000E06940F00100E061BDE8104001F043BB36
:102C00002DE9F05F01F03CFB214C94F8E001002835
:102C100003D000BF4FF4907001E04FF0F000A4F833
:102C2000E80102D04FF01D0501E04FF0190500EB5F
:102C300005061848008880073DD502211148FFF796
:102C400008F80E4808300068C00535D4B4F8DC1127
:102C5000C82931D90248426891421DDC11461CE066
:102C600064010020601000200800024000080140BC
:102C70000030014000E100E030000240000C014063
:102C800000380040002C014000040040E0410020DA
:102C900060400020102C01404160A4F8DE11B1F525
:102CA000967F01DD012100E0002184F8E011002180
:102CB000A4F8DC11416090E04A480068C0057DD569
:102CC000B4F8DC01DFF82091401C80B2DFF81CA1D1
:102CD000A4F8DC0109F546574FF6FE7BA84232DB2B
:102CE000711E88422FDC401B00EB400101EBC0014C
:102CF00009EB8100C4F8E401DAF83020504602EA1A
:102D00000B02CAF83020CAF83C702D22CAF83420D1
:102D1000DAF8303043F00303CAF83030DAF85830CC
:102D200003EA0B03CAF8583007F12D01CAF8641002
:102D3000CAF85C20DAF8581041F0010181650121E0
:102D40002B48FEF74DFFB4F8DC11681E4FF02C083D
:102D5000814211D1DAF81C2002EA0B02CAF81C20C9
:102D6000CAF82890CAF82470CAF82080DAF81C2023
:102D700042F00102CAF81C20DFF878C0DCF8082015
:102D8000DAB1A94219DB701E814216DC4B1BDAF85E
:102D9000085005EA0B05CAF8085003EB430505EB9C
:102DA000C30509EB8503CAF81430CAF80C80DAF8B9
:102DB000083043F00103CAF8083000E00DE0B142EA
:102DC0000BD192F00100CCF8080002D094F8DA019F
:102DD00001E094F8DB0101F0CBFBBDE8F05F01F00E
:102DE00052BA0000080801406010002000000240B4
:102DF00000040040640100207CB5F94C4FF4807061
:102E0000012160601020A060A4F50470E06000F56E
:102E1000807020618803FEF768FD4FF40070ADF804
:102E2000000002258DF802501820EE4E8DF80300A8
:102E300069463046FEF7A8FF6802ADF8000048205A
:102E40008DF8030069463046FEF79EFF25208DF879
:102E500004008DF8055000208DF8060001208DF843
:102E6000070001A8FEF7FFFB20467CBD7CB5DC4CCB
:102E700001214034206040206060A060A4F5A07073
:102E8000E06040302061D848A062D7481430E0624A
:102E9000D648E0634804FEF731FD0420ADF8000099
:102EA00002258DF802501820CE4E8DF80300694699
:102EB0003046FEF769FF0820ADF8000048208DF885
:102EC000030069463046FEF75FFF11208DF80400CD
:102ED0008DF8055000208DF8060001208DF80700C0
:102EE00001A8FEF7C0FB20467CBD7CB5BC4C01218F
:102EF0008034206040206060A060A4F58070E060B5
:102F000040302061BA48E0638804FEF7F7FC4FF4D4
:102F10008060ADF8000002258DF802501820B54EF3
:102F20008DF8030069463046FEF72EFFA802ADF883
:102F3000000048208DF8030069463046FEF724FF64
:102F400027208DF804008DF8055000208DF806002C
:102F500001208DF8070001A8FEF785FB20467CBD07
:102F6000F0B50F460646A4490024A048A04D8FB0F6
:102F70008E4204D13846FFF73FFF044605E0864203
:102F800003D13846FFF772FF04E0AE4203D1384662
:102F9000FFF7ABFF04460025E561A5616562E663C6
:102FA0002562ADF834500C20ADF83050ADF8360045
:102FB0000B97ADF83250ADF838500BA93046FEF7FC
:102FC0005FFE01213046FEF7B3FE6846FEF708FCBF
:102FD000301D00904FF48050CDE909058020049504
:102FE000CDE905050795A06AD8B16068CDE9025022
:102FF00020200890E0680190A06AFEF767FB694610
:10300000A06AFEF7D0FB0121A06AFEF7F6FB0122C1
:1030100040213046FEF7AEFEA06AFEF703FC606179
:1030200005E0012240F225513046FEF78BFEE06AB2
:10303000E0B1A0680390102008950290E06AFEF7C6
:1030400045FB6946E06AFEF7AEFB01220221E06A19
:10305000FEF7DEFB0021E06AFEF7E2FBE06A456076
:10306000012280213046FEF785FE05E0012240F274
:1030700027713046FEF766FE0FB02046F0BD426A6B
:1030800001691144C26AD160D0E908218A4204D999
:10309000511AC26A5160016A04E08268511AC26A18
:1030A000516000214162C06A0121FEF7A6BB816A1E
:1030B00011B14968406901E0183003C8814201D06C
:1030C000012070470020704710B5C368826A4168CC
:1030D0003AB142698C1A1B5D521E426109D14161AD
:1030E00007E0C2699B5C521CB2FBF1F401FB1421A6
:1030F000C161184610BD036A0269D154016A826831
:10310000491CB1FBF2F302FB13110162C16A19B150
:103110000968C90706D1B2E7C06B012240F22771E6
:10312000FEF710BE70472E49C86B028812060ED5F6
:10313000D1E908329A420BD00B699A5C8280486AC6
:103140008A68401CB0FBF2F302FB13004862704730
:10315000002240F22771FEF7F5BD10B5204C4FF06C
:1031600000704034FEF761FB0021E06AFEF745FB8A
:10317000D4E90801884203D02046BDE810407EE72C
:1031800010BD174830B48030C26B11888B060CD547
:1031900092888469C3681A558269436802F1010202
:1031A000B2FBF3F403FB1422826109060FD5D0E9C8
:1031B000082191420DD00269515CC26B9180416A35
:1031C0008268491CB1FBF2F302FB1311416230BC6F
:1031D0007047C06B30BC002240F22771FEF7B2BDD1
:1031E0005C440020000801406C00024000440040A4
:1031F00000480040000C0140003801402DE9F0413A
:10320000504D80460E466868032810D14E4802276C
:103210000760002406E000BF18F804102868FFF7D4
:103220006AFF641CB442F7DB4748001F0760BDE833
:10323000F0812DE9F047434D80460024686802265E
:103240008946032813D1404F2868FFF730FF38B173
:103250003E602868FFF738FF08F80400641CF3E7B5
:103260003A4889F8004004603748001F0660BDE80E
:10327000F08738B5364C032020606846FEF7D6FD4F
:10328000A014ADF8000010208DF803002E48022590
:103290008DF8025069461438FEF776FD3220FDF7AE
:1032A0000DF825600520FDF709F800202060211D9C
:1032B0000860FEF7C9FA0121C805FEF71FFB38BDFB
:1032C00008B514208DF8000003208DF801000020BF
:1032D0008DF8020001208DF803006846FEF7C3F95F
:1032E00008BDF0B500230A2530274FF0370C1C46E7
:1032F00010E000BFB5EB107F02D907EB107601E0BC
:103300000CEB107601F8136001EB430600015B1C27
:103310007470DBB29342EDD3F0BD0E4810B5016876
:10332000001D0468001D006808180AD008220A4918
:10333000FFF7D7FF084920460422BDE810401031AE
:10334000CFE710BD700F0020140801407801002065
:10335000405C0040E8F7FF1F0E010020794920F093
:10336000070008607047774A503A02EB8000026815
:1033700048F68F1392B21A400A4302607047714AAE
:10338000503A02EB8002106848F6BF7380B200EA40
:103390000300CB0601D580F01000890601D580F02E
:1033A000200048F28001084310607047654A503A97
:1033B00002EB800210684BF68F7380B200EA0300C4
:1033C000CB0401D580F48050890401D580F40050ED
:1033D00048F280010843106070475A49503901EBA8
:1033E0008001086848F6BF7280B2104080F030005B
:1033F00048F280021043086070475249503901EB8F
:10340000800108684BF68F7280B2104080F4405003
:1034100048F280021043086070474A49503901EB76
:103420008001086848F68F6280B2104048F280023E
:103430001043086070474349503901EB8000016830
:10344000490408D5016848F68F7289B211404CF2E0
:1034500080021143016070473A49503901EB800006
:103460000168490608D5016848F68F7289B2114093
:1034700048F2C002114301607047324A21F0010155
:10348000126892B202EBC0002F4A42F81010704747
:103490002C4A21F00101126892B202EBC0002A4AC4
:1034A00002EB4000816070472649096889B201EB50
:1034B000C000254951F8100080B2704721490968C1
:1034C00089B201EBC000204901EB4000806880B266
:1034D00070471C4A126892B202EBC0001A4A02EB13
:1034E000400041607047174A126892B202EBC00078
:1034F000154A0C3202EB40023E2909D94809C90697
:1035000001D1401E80B24FF4004141EA802005E025
:103510004808C90701D0401C80B280021060704783
:103520000849096889B201EBC000074901EB400076
:10353000C068C0F309007047C1B2000A40EA012028
:1035400070470000505C0040006000400E490020C1
:1035500008600E494FF4064008800B49091F0860B7
:103560000020704770B500F07F060D463046FFF72B
:10357000D7FF04463046FFF7A1FF01462246284602
:1035800000F0A9FC204670BD445C00409001002082
:1035900010B5F74C30B1F7480068006880472068E4
:1035A0000A3010BD216801200882002010BDF048BB
:1035B00010B50068F04AC1785278914203D88278F9
:1035C0000AB982880AB1022010BD8172E9480068F8
:1035D00040688047002010BD10B5E54C30B1E5488B
:1035E00000688068804720680C3010BD2168012089
:1035F0000882002010BD10B5DD4CE04A206812683A
:10360000C17892694079904721688A7A22B118B9C5
:10361000087908B9887808B1022010BDD54800683B
:10362000C068804720684179C172C1780173002069
:1036300010BDCF4910B5096860B1D14800220280A1
:103640000A7853060AD002F07F02012A16D0022A15
:1036500016D001E002200882002010BD497A8A06B7
:10366000027802D542F0020201E002F0FD024906B2
:103670000270D1B210D401F0FE010FE0C04810BDBD
:103680004A7902F00F011306BE4A52F8211007D5FD
:10369000C1F3011106E0017841F00101017003E07E
:1036A000C1F301310129F6D0B248006800698047B2
:1036B000E4E72DE9F041AE480168087810F07F009A
:1036C00002D0022805D05EE0487A00F0DF004872A0
:1036D00047E04888002856D10879002853D14A7914
:1036E000A84C22F080001506A34B54F8205003D5B7
:1036F000C5F301152D0102E0C5F301352D031E7838
:10370000034686423FD97DB3897A69B311060ED547
:1037100054F82010C1F3011101291ED1D8B204467A
:10372000FFF79AFE30212046FFF729FE15E004EB53
:1037300080052968C1F3013101290ED14BF68F763E
:1037400048F2800788B1D8B2FFF775FE286880B2CA
:10375000304080F440503843286086480068406913
:1037600080470020BDE8F0810DE0874890F82C10DC
:103770000020FFF7B8FE206880B2304080F440504F
:1037800038432060E9E70220ECE770B57848036829
:103790007C48597921F0800500EB85000C0604680F
:1037A00021F0800203D5C4F30114240102E0C4F324
:1037B00001342403704D2D78954211D95A887AB975
:1037C00074B19A7A62B109060029016848F2800250
:1037D00089B207DA48F6BF73194081F0100106E09C
:1037E000022070BD4BF68F73194081F48051114354
:1037F00001606048006880698047002070BD5C48B7
:1038000010B50068417A41F02001417259480068C2
:10381000C0698047002010BD554A13685A8A10B10C
:103820000868104470478888801A18820020704702
:103830002DE9F05FDFF83891DFF850814FF0300A62
:10384000D9F8001001F11005088A0E7A08B9042E83
:1038500004D0AC88A04217D8042616E04849891E37
:10386000087860B1474A002050321268484B92B243
:1038700003EB42025060A8F800A0087025E007267C
:103880001021A8F8001020E00226844200D9044646
:10389000A0B2A9680746884783460020FFF704FEC8
:1038A00001463A46584600F005FB39460020FFF72E
:1038B00010FE2888001B2880688820446880A8F8AB
:1038C00000A034494FF440500880D9F80000067237
:1038D000BDE8F09F70B5264D2868017844784A0607
:1038E00006D001F07F00012828D002282BD035E037
:1038F000092C06D0052C07D0032C0ED0012C14D097
:103900002CE0FFF754FE28E0C1787F292ED881787B
:1039100061BB818851BB807A27E0C17801291DD124
:103920008088D8B9FFF76BFF17E0C178012915D15E
:10393000818899B9407A80060AD40FE00B2C0DD10A
:10394000FFF759FE09E0012C02D0032C03D005E05B
:10395000FFF7AFFE01E0FFF718FFF8B10748006876
:103960004169E0B28847032816D0B8B1082021E0A9
:10397000840100208C010020D80000208801002054
:103980007E010020005C004088000020940100209F
:10399000006000409201002009200BE0DE4A062072
:1039A00000211268DD4B92B203EB42025160DC4A07
:1039B000302111802968087270BD2DE9F041D94C81
:1039C000D94D09262068002729684278062A05D0A3
:1039D000AAB1082A4CD00A2A50D06CE002785206CC
:1039E00069D18078012804D0022804D0032804D0AB
:1039F00061E0C96957E0096A55E0496A53E04288C5
:103A0000AABBC288022A56D1027982BB0278530629
:103A100001D1838833B102F07F02012A05D0022A46
:103A20000DD048E0AFF2F5313DE08A6940790021E0
:103A30009047E0B92068807A0028F3D13BE04179D3
:103A400001F00F0001F070020B06B84951F8201088
:103A500003D5C1F30111090102E0C1F301310903EA
:103A6000B34B1B78834226D90AB90029DAD122E068
:103A7000007840061FD1AFF2E74114E0027802F06F
:103A80007F02012A17D1827AAAB142889AB90279B3
:103A90008AB9C288012A0ED18A69407900219047EB
:103AA00048B9AFF2CB4131B1206847828161002033
:103AB0008847002006E0296820680969407888471F
:103AC000032807D021680A8AA2F57F43FF3B04D16F
:103AD0000E7247E62068067244E6022808D03AB122
:103AE000087800061FD5C888824205D9088213E0ED
:103AF0004FF00800087235E60ED228688D4B90F81A
:103B00002C00824201D21F7006E0B2FBF0F400FBF1
:103B1000142008B901201870286890F82C008882B9
:103B2000BDE8F04184E60320087283490003088061
:103B300018E6824810B590F82C100020FFF7D3FC4F
:103B400078480068007A082802D0092809D006E0E1
:103B500079494FF480500880714910200880002076
:103B600010BD012010BD70B56B4800686D4D81B26D
:103B70006A4800EB4101896889B200EB410428687A
:103B8000017A09290FD02178017061784170A088ED
:103B9000FFF7D2FC296848802089FFF7CDFC29680F
:103BA0008880A089C880286801210172C08820B15E
:103BB000FFF703FFBDE87040BBE7FFF78BFEF9E7B7
:103BC000F0B55B49594E48F68F770B78002148F2E3
:103BD000800C0AE0CCB206EB84052A6892B23A4027
:103BE000224342EA0C022A60491C9942F2D34A4914
:103BF00040F08000091F0860F0BD10B5494C2068F6
:103C0000017A022904D0042902D0062905D015E042
:103C1000FFF70EFE2068007A11E04178052909D1EE
:103C20000178490606D1C078FFF7CAFF444800680A
:103C3000006A80473C480068806880470820216807
:103C40000872BDE8104074E710B5364C2068007A61
:103C5000022811D004280FD0032804D0052802D050
:103C6000072805D008E000F00EF82068007A04E08C
:103C70002D480068C0688047082021680872BDE8A8
:103C8000104056E770472DE9F047264EDFF8909038
:103C90004FF03008346834F8100FA168B1B108B3A0
:103CA000A588854200D90546A8B2074688478246BE
:103CB0002088401B20806088284460800020FFF717
:103CC000FDFB01463A46504600F005F9208848B110
:103CD00019494FF44050088000210846FFF7F9FBCE
:103CE000A9F800802088A188884201D3032001E040
:103CF00020B1052031680872BDE8F08731680620E0
:103D00000872054900200968044A89B202EB4101A2
:103D10004860A9F80080EFE7505C00400060004078
:103D2000940100208401002088010020005C0040F4
:103D3000D80000207C010020920100208800002093
:103D40008C01002006480549022201600A72064AD9
:103D50000449C0E901120868004700001C46002021
:103D60008401002088000020DC0000202DE9F84FAD
:103D7000DFF82CA14BF6BF7648F28007474D40F69E
:103D80008F78474C48F60F7BDFF818910AF1440A08
:103D90002CE0018811F00F0243490A702FD004EB88
:103DA0008200016889B2009109040CD53E4B01687C
:103DB00089B201EA080101603C48197800EB8100F2
:103DC00050F8040C8047009800060FD5364801785B
:103DD00004EB81010A6892B202EA0B020A603449DC
:103DE000007801EB800050F8040C8047DAF80010EE
:103DF0004846A9F800100904CBD4BDE8F88F216823
:103E00002980298801F030016980298801F4405116
:103E10002980216889B2314081F4005181F020016C
:103E2000394321600088C0060028206880B216DB74
:103E300000EA0B002060FFF7E0FE23E029888904F8
:103E400001D580F400506988C90624D469888906A0
:103E500001D580F0200080B238432060CDE7010515
:103E600007D5206880B200EA08002060FFF77BFEDB
:103E700008E00004BAD5206881B201EA0801216097
:103E8000FFF7E2FE2068298880B23040C904D5D50A
:103E900080F48050D2E780F01000D7E79201002034
:103EA000005C004028010020800100204801002023
:103EB0002C0100200E4B10B5521C520803EB41019F
:103EC00008D003784478801C43EA042321F8043B9B
:103ED000521EF6D110BD064B521C520803EB410195
:103EE00004D008C920F8023B521EFAD170470000E6
:103EF000006000402DE9F04104460D461646FCF7EF
:103F000015F9384F3878052804D3FCF70DF900204F
:103F1000BDE8F0813348FCF7F3F87978324B0122A1
:103F200008441A700521B0FBF1F201FB120007EB07
:103F3000C0031C715D719E60FCF7F6F80120E7E795
:103F40002DE9F041284E00277078012802D100F0B9
:103F5000BDF87770B078234C012836D100F05CF9B9
:103F6000B77032E0FCF7E2F8607804EBC001401C67
:103F7000D1E9015188460521B0FBF1F201FB1200A5
:103F800060702078401E2070FCF7CEF8E8B201285F
:103F900006D0022809D003280DD0042815D10FE03F
:103FA000C5F3072000F00EFD0FE04146C5F30720E2
:103FB00000F00CFB09E0C5F3072000F0ACFA04E0C8
:103FC0004146C5F3072000F0CBFC20780028C9D17A
:103FD000FCF7ACF8207800B93770BDE8F041FCF789
:103FE000A3B80000384600209601002030B5002913
:103FF0002AD04E4C23680BB11A4619E001622060AA
:104000001DE0956A2DB16862936AC0E90923906248
:1040100002E0436298622060426A136A19440162B6
:10402000136AA3EB0101116209E0556A25B12A4622
:10403000156A491BF9D5E4E78262506201620221E8
:1040400041713B490120087030BD10B5D0E909230A
:1040500000217BB1DAB15A62D0E909239362426A46
:10406000046A136A23441362416281624FF0FF3194
:10407000016210BD2D4B42B11A60136A046A2344D9
:104080001362426A91624162F0E71960EEE7596299
:10409000EBE7284910B5097809B1032010BD411C90
:1040A00006D00028FAD024490A781AB1152010BD8C
:1040B000022010BD0A78521C0A7001461F48006891
:1040C000FFF794FF00F0F3F8002010BD2DE9F04158
:1040D000164E3468002C1BD04FF0FF370025206AA5
:1040E000002815D1207AFF2802D0204600F013FCCA
:1040F000E06908B100F05FF92762606A306020462D
:10410000656200F09AFA3468002C01D0A562E6E7F7
:10411000BDE8F08108480078012805D90849012048
:104120000870084908707047D0E700009C01002023
:10413000AA010020A8010020A9010020C40100203C
:10414000960100209701002000EB4001474830B461
:1041500000EBC1014A68002A2BD0454B1878401C5F
:104160001870444C23680BB1184618E021601DE01C
:1041700045692DB129614369C1E90403416102E048
:104180000B6159612160086943681A444A604168BB
:10419000A1EB0201416009E0056925B128464568A7
:1041A000521BF9D5E4E7486101614A6030BC00F078
:1041B0007EB830BC70472D4A00EB400102EBC101D4
:1041C0002B4A30B413785B1C1370284C00EB400072
:1041D00004EBC0004B690069002273B1D0B11861D3
:1041E000D1E90403436108694C6843682344436090
:1041F0000A614A6130BC00F05AB81E4B40B11860E9
:10420000426108694C684368234443600A61F1E7EE
:104210001A60EFE71A61ECE770B5164D14E06078AC
:1042200010B1012810D105E02078FFF7C4FF01206C
:10423000A07007E02078FFF7BEFFA06860602078DC
:10424000FFF782FFE06880472C68002C02D060688E
:104250000028E4D070BD06480078012805D9064939
:1042600001200870054908707047D5E764460020B2
:10427000A9010020A0010020960100209801002043
:104280003048FBF73DBF10B52E48FBF743FF2D4CE0
:10429000207800280AD1A078012807D16078401C36
:1042A000607000F018FA6078401E607010BD10B5A4
:1042B000244C6078012802D06078401E0BE0224830
:1042C0000078012801D1FFF73BFEA078012801D139
:1042D00000F001FA0020607010BD10B54FF0E02032
:1042E0001A494161072101611948016841F07F4184
:1042F0000160001D0168174A1143016000F088F950
:1043000000F0A4FA00F050F90E494878401C4870BB
:10431000114B44F240021C460021104800F030FAD4
:104320002046BDE81040FBF703BF0E4910B50C480E
:1043300008600D4908600121417100F0B4F9BDE841
:104340001040B4E7A8010020960100203F190100A9
:104350001CED00E00000FFFF484B0020E1010008D9
:10436000C0480020C4010020C001002070B5894A67
:1043700005461078401C107087480024012382688D
:1043800003FA04F6324207D0641CE4B2202CF7D3BF
:10439000FFF78DFFFF2070BDA3401A4382600268C3
:1043A000A1400A4302604168A54029434160FFF7EC
:1043B0007EFF204670BD10B5D0E90042764B00214B
:1043C0003CB172B16260D0E900231A60C068C1617B
:1043D00010BD1AB11A6142681160F7E7D96019611E
:1043E000F4E7DC6002685160F0E770B50546FFF75E
:1043F000E2FFEC68206A401C02D02046FFF725FE51
:104400004FF0FF30E06165480068844202D101202E
:10441000607102E0204600F010F9286870BD10B508
:104420005E4C5D4B2468E061C0E9021402741A69B5
:1044300000212AB110601A69C0E90012186110BD8C
:1044400001604160D860F9E72DE9F043884654499E
:1044500085B0097819B1032005B0BDE8F0834D4E51
:10446000317809B11520F7E7202811D24A498A6826
:10447000012101FA00F422420AD03078401C307049
:10448000454D2868204205D06968214088432CE0CA
:104490000120E1E741484FF00009B8F1000F07683B
:1044A0000DD0022221466846FFF7B9FF4146384643
:1044B000FFF79CFDFFF7FBFEF869D8B10CE08846DA
:1044C000022221466846FFF7AAFF3649022078718A
:1044D00081F80080FFF7EBFEC7F81C903078401C95
:1044E0003070686804402868A0432860FFF7DFFE4A
:1044F0000020B1E70520AFE72749202809D2012293
:104500008B688240134204D0086890430860002002
:1045100070470120704770B51F4C202809D2012533
:10452000A1688540294204D02068284203D0002099
:1045300070BD012070BD1749284320600878401CD9
:104540000870E0680FE0017C22680029816807D0CC
:10455000114207D0FFF749FF6168294203D004E008
:104560009143F7D000680028EDD1FFF7A0FEDEE709
:10457000084910B5097849B1014600220320FFF728
:10458000B9FC08B1002010BD122010BDBDE81040DC
:10459000C1E70000A9010020E4470020C401002079
:1045A000A8010020AA0100200648074900F1C8021E
:1045B000C1E90002091F08600021016041608160BB
:1045C00070470000F8470020B001002010B5142803
:1045D00007D20D4A02EB00104279C2F30302022A0D
:1045E00001D0012010BDC2880AB1072010BD074BC1
:1045F0001A78521C1A7001600121C18000F043F941
:10460000FFF755FE002010BD4C4B0020A9010020F3
:104610008748002100F12C0203238171437142621B
:10462000491C2C302C32C9B20829F6D381710021E3
:10463000416280497E4808607047F0B57D4F04793B
:1046400000214171F9680A79A24210D181420ED04D
:1046500069B1794AD7E90465D2E90032F61A954181
:1046600005D24D89EB1842F10001C7E90431734BC3
:104670007968012239B10D79A54206D91A704162D3
:1046800088627860F0BD1A70FBE74A6A22B113793C
:10469000A34201D81146F8E7426248628162002ACB
:1046A000F0D09062F0BD10B5D0E90923614C002133
:1046B00042B163B13AB15A62D0E9092393624162CF
:1046C000816210BD0BB15962FAE7616010BD626092
:1046D0004162916210BD2DE9F041564C6568E66873
:1046E000002D4BD0A068864248D15548007801285B
:1046F00044D854480078002840D150490870727955
:10470000307929790127DFF830C1012A05D0A56069
:104710006F712846FFF7C7FF13E0814209D3884233
:104720002CD1D4E90401DCE900235040594008436E
:1047300024D13046A560FFF780FF2846FFF7B3FF7E
:104740006F71A068626801791279914207D141893D
:10475000DCE90023891843F10000C4E90410316842
:10476000F068814203D300683749884202D0B079AB
:10477000FBF756FDBDE8F041FBF7DEBCBDE8F0817C
:104780002DE9F05F15469846C2F30B27D6B278B3F1
:104790001A46B8F1000F2ED0402E2CD8142F2AD351
:1047A00000F034F9DFF898A081469AF80010491C0F
:1047B0008AF800101F484FF0000B0468CCB1616A02
:1047C0000160FFF774FDC4F80090A8EB8700267124
:1047D000001D1D49E06001604FF0FF302062C4F809
:1047E00024B05846C5F30A51C4F828B031B106E0E8
:1047F00001E0FFF75CFDFF20BDE8F09F0A21618129
:10480000FF21E061217220616061A061E171002DF2
:104810000ADB9AF80010491C8AF800102046FFF7BE
:104820000CFFFFF744FD01E002206071A079E3E78F
:10483000C0480020B8010020D8010020AA010020B3
:10484000A9010020A8010020A5A55A5A414800212D
:1048500000F11002026001714379491C23F00F033B
:104860001B1D437110301032C9B21329F2D34279A3
:1048700022F00F02121D42710022026001713649BE
:1048800034480860704770B5C4680546002C3CD0B9
:1048900060690026E86000B18661FF2066612072D1
:1048A000206A401C02D02046FFF7CFFB6879C0F396
:1048B0000300022804D0032809D0012819D01EE0E3
:1048C000286820612E60E888401EE88017E028688C
:1048D000C288016851F822102161C188491C89B23F
:1048E000C1808289521E82814289914207D1C6804D
:1048F00005E0E888401EE8804FF0FF30206117484F
:104900000068844202D10120607170BD2046BDE87C
:104910007040FFF792BE10B5017A0E4A02EB011407
:10492000D0E90532002153B17AB14BB15361D0E9DE
:104930000523936181614161FF21017210BD12B1B4
:1049400051618161F8E7E160F6E799614269E260EF
:10495000F1E700004C4B0020D0010020C4010020F2
:1049600010B5142807D2154A02EB00104279C2F3A1
:104970000302032A01D0012010BD026893895489E3
:10498000A34201D1082010BD0D4C23785B1C23707D
:104990001489136843F824101189491C89B21181C4
:1049A00093895B1C93815389994201D10021118124
:1049B000FFF769FFFFF77BFC002010BD4C4B002088
:1049C000A901002010B5142807D20E4901EB0010F0
:1049D0004179C1F30301012901D0012010BDC18833
:1049E0000289914201D1062010BD074B1A78521C52
:1049F0001A70491CC180FFF746FFFFF758FC0020E2
:104A000010BD00004C4B0020A90100204FF0807326
:104A10001360131F6FF001021860181F026040F846
:104A2000141C34387047164910B50878401C0870BB
:104A30001448D0E90012491C42F10002C0E90012FA
:104A400011480024006840B1016A012902D9491EB9
:104A5000016202E00462FFF75DFB0C48006840B1B0
:104A60004168012902D9491E416002E04460FFF714
:104A7000F2FB074901200870BDE81040FFF717BCA2
:104A8000A9010020D80100209C010020A0010020E5
:104A9000AA01002000487047BC8E000840EA0103CC
:104AA0009B0703D009E008C9121F08C0042AFAD2E4
:104AB00003E011F8013B00F8013B521EF9D27047A8
:104AC000D2B201E000F8012B491EFBD27047002250
:104AD000F6E710B504460846114602462046FFF7A1
:104AE000EFFF204610BDF0B480EA0102D20F430070
:104AF000B3EB410F02D20346084619464B0042D0A1
:104B0000C30DDDB2C1F3C7542C1B202C35DAC1F321
:104B1000160141F4000502B16D42C4F1200605FA08
:104B200006F125412844B3EBD05F23D0C2B1012C5C
:104B3000A0EBC35009DCF0BC4FF0004202EAC352C4
:104B400000F50000DBB200F0ABBA400000F180706D
:104B500000EBC350A0F1807040EAD170490009E039
:104B6000490841EAC071A0EBC35000F500004008BD
:104B700000EBC350F0BC00F08ABA5142012303EBB2
:104B80004101801AF6E7F0BC704781F00041AAE7C6
:104B900080F00040A7E780EA010210B502F0004271
:104BA000400026D04B0023D04FEA106101EB136187
:104BB000C0F35600C3F3560340F4000043F400036F
:104BC000A0FB0330A1F17F014FEA00401C0401D09B
:104BD00000F1010050EA134001D44000491EC3B265
:104BE0000C0604EBD010401C4008802B02D003E0E0
:104BF000002010BD20F00100002900DA0020104341
:104C000010BD80EA010202F0004330B430F00042EF
:104C100021F0004015D0A0B1C0F3C755C2F3C7546E
:104C2000C2F31601C0F31600651B41F4000140F405
:104C300000007D35814201D36D1C00E04900002D4C
:104C400002DA30BC002070474FF400020024814299
:104C500001D3091A144352084FEA4101F7D151B167
:104C6000814202D14FF0004105E002D24FF0010134
:104C700001E06FF0010104EBC55030BC184400F0B6
:104C800006BA420005D0C0F3C7525242914201DC3D
:104C90000020704700EBC15070472DE9FE4F0746DA
:104CA00081EA0300C00F0E46019021F0004123F07D
:104CB0000044B81AA14105D23846314617461E466F
:104CC0000B46024623F00040104304D138463146DB
:104CD00003B0BDE8F08F350DC5F30A00C3F30A51E8
:104CE0000290401A0090402868DAC3F3130040F4A1
:104CF000801B0198924620B10023D2EB030A63EB9C
:104D00000B0B00985946C0F14002504600F09EF946
:104D100080460C4650465946009A00F0A6F9C01944
:104D20007141EF1785EA11533B4340D0019A52B3CA
:104D3000009A012A11DC0022801A4FF0004361EB37
:104D4000055103EA05538018CDE9002341F5801190
:104D50004246234600F02BFABAE72E050025401BF9
:104D600061EB0601401941F58012001852412818E4
:104D7000A6F5001343EB020140EAD470294318EB77
:104D80000808644113E064084FEA38084FF0000255
:104D900044EAC0744FEA0553801A61EB030180189E
:104DA00041F5801149084FEA3000801859414246C8
:104DB000234603B0BDE8F04F00F0ECB901980122A2
:104DC00040000023D0EB020263EBE07301984FEA4E
:104DD000E074381A66EB0401EBE783F000435CE70C
:104DE00081F0004159E72DE9FE4F81EA030421F0EB
:104DF000004504F0004423F000414FF0000A009405
:104E000050EA050302D052EA010304D10020014612
:104E100003B0BDE8F08FC1F30A53C5F30A541C4434
:104E2000A0FB02B3C5F3130545F4801CC1F31301C5
:104E300041F480180CFB023300FB083EA4F2F3346B
:104E4000810A930A41EA8C5143EA88530194A1FBF9
:104E500003474FEA9C2505FB03734FEA982601FBA5
:104E600006373D05260545EA1435BBEB06016EEB1A
:104E70000503850E920E45EA8C1542EA8812A5FBC1
:104E80000206261E67EB00070C0D44EA0334A41942
:104E900047EB1350C1F313064FF0000319464FEAD6
:104EA000033343EA165343EA0403019CE5FB020182
:104EB000A4F10C040294009C4FEA0632CDE900A450
:104EC00000F075F9A4E72DE9F04D81EA030404F040
:104ED000004B21F0004714464FF0000A23F0004138
:104EE00050EA070220D054EA01021DD0C1F30A554E
:104EF0000246C1F31300C7F30A56C7F3130340F485
:104F0000801143F48013A6EB0508101BD64608F267
:104F1000FD3873EB010002D308F1010801E092189B
:104F20005B41B8F1000F03DA00200146BDE8F08DC7
:104F300000204FF48015064607460EE0B2EB040C45
:104F400073EB010C04D3121B064363EB01032F43E5
:104F50006D084FEA300092185B4150EA050CEDD124
:104F600052EA030012D082EA040083EA01052843D2
:104F700003D100224FF0004308E0101B8B4102D206
:104F80000122002302E06FF0010253101AEB060029
:104F900047EB085110EB0A0041EB0B01BDE8F04D67
:104FA00000F0F8B8C10F80EAE0700844CA07962301
:104FB000002100F075B896230022114600F070B869
:104FC0000EB5C10F80EAE0700844CA07002140F224
:104FD00033438DE80E000A460B4600F0E8F803B0B4
:104FE00000BD00F0004220F00040C10DC0F31600EB
:104FF00040F400007F2901DA00207047962903DC85
:10500000C1F19601C84001E096398840002AF4D0E9
:105010004042704701F0004230B421F0004150EAB4
:10502000010306D00B0DA3F56073C1F31301002B30
:1050300002DC30BC00207047440F44EAC104C100C8
:10504000A01830BC00EBC35000F021B8202A04DBCC
:10505000203A00FA02F1002070479140C2F120038B
:1050600020FA03F3194390407047202A06DBCB1740
:10507000203A41FA02F043EAE071704741FA02F344
:10508000D040C2F1200291400843194670470029E0
:10509000A8BF7047401C490008BF20F001007047BE
:1050A00010B4B0FA80FC00FA0CF050EA010404BF1E
:1050B00010BC704749B1CCF1200421FA04F411FA74
:1050C0000CF118BF012121430843A3EB0C01CB1DB8
:1050D0000106000A002BBEBF002010BC704700EB89
:1050E000C35010440029A4BF10BC7047401C4900A5
:1050F00008BF20F0010010BC7047F0B4002802DCAB
:10510000F0BC00207047C0F3C751C0F3160040F454
:105110000000CA0701D14000491E3F2202EB610591
:10512000002211464FF4000626FA01F31344D41866
:10513000844201D8001B1A464000491C1729F3DDA0
:105140005100814202D24FF0FF3100E0002102EB1A
:10515000C550F0BCFFF79BBF10B541000CD0C0F3A9
:10516000C751962908DC7E2909DC06DB410204D000
:1051700000F0004040F07E5010BD002010BDC1F195
:105180009604C4F1200100FA01F1E040FFF77FFF2F
:10519000A04010BD10B5002B08DA401C41F1000101
:1051A00092185B411A4301D120F0010010BD2DE996
:1051B000F04D92469B4611B1B1FA81F202E0B0FA8D
:1051C00080F220329046FFF741FF06460F4640EA44
:1051D0000A0041EA0B0152465B46084303D13046C0
:1051E0003946BDE8F08D194652EA010015D0C8F1E4
:1051F0004002504600F086F804460D465046594697
:105200004246FFF723FF084301D0012000E00020C1
:10521000044345EAE07526432F430A984FEAD62512
:10522000A0EB08000A304FEA46534FF0000245EA6F
:1052300047554FEAD72402D500200146D1E70105A2
:1052400050196141DDE9084500196941BDE8F04D9B
:10525000A0E710B500F0004420F00040C20DC0F3FC
:10526000160040F400007F2A07DA7D2A00DA7D224A
:10527000763A00FA02F1002008E0962A09DCA2F151
:10528000760100FA01F1C2F19602D040FFF7FFFE6D
:1052900001E0963A9040002C00D0404210BD00F052
:1052A000004230F000400DD0C10D01F5607142EABE
:1052B00001510022C0F31600520742EAD002400713
:1052C000114370470020014670470000002801DBB1
:1052D000C0F10040002901DBC1F10041814270476B
:1052E000064C074D06E0E06840F0010394E8070033
:1052F00098471034AC42F6D3FAF7FCFEE08E000873
:10530000008F0008202A04DB203A21FA02F0002155
:10531000704721FA02F3D040C2F1200291400843C5
:105320001946704770B501EB020410F8015B15F0E7
:10533000070301D110F8013B2A1106D110F8012B07
:1053400003E010F8016B01F8016B5B1EF9D12B072C
:1053500005D40023521E0FD401F8013BFAE710F8E0
:10536000013B02F10202A1EB030303E013F8015B2E
:1053700001F8015B521EF9D5A142D6D3002070BDC1
:105380004100080218BF04200A0E18BF40F00100B7
:105390004FF07F4232EA010108BF40F002000128CD
:1053A00008BF052070476FF05E010807FFF769BC72
:1053B0002DE9F04D034614464FF07F400E46B0EB0A
:1053C000440F04D8001608601846BDE8F08D4FF071
:1053D000004040EA0421C4F3C7507838431100F07C
:1053E0001F00DFF814C1C0F12002FC445CF8235018
:1053F0000CEB83038540D3F804C02CFA02F72F434B
:105400009D680CFA00FC25FA02F8DB6805FA00F04A
:1054100023FA02F240EA02054CEA080CA7FB01233A
:10542000ACFB01C0A5FB015101EB0C05A94294BFE7
:105430004FF0000C4FF0010C81186144BCF1000FDB
:1054400002D0814202D903E0814201D2012000E072
:105450000020184400F120024FEA92188006CA0C7E
:1054600040EA42304F03C6F80080FFF79BFD8246BA
:105470003846FFF7A0FD6FF01201FFF702FC074668
:105480002846FFF798FD6FF02501FFF7FAFB8346EA
:1054900039465046FFF727FB5946FFF724FB00F536
:1054A00000656FF30B0551462846FFF76EFB394642
:1054B000FFF76BFB5946FFF76BFB1049FFF76BFBE0
:1054C00007460F492846FFF766FB3946FFF70BFBF7
:1054D00007460C492846FFF75EFB3946FFF703FBFA
:1054E00014F0004F08BFBDE8F08DC8F1805180F086
:1054F00000403160BDE8F08DD23A0000DB0FC92FCB
:1055000022AAFD290000C92F02E008C8121F08C105
:10551000002AFAD170477047002001E001C1121F34
:10552000002AFBD170470000014908607047000065
:10553000E00100202DE9F0474FF0684202EB400304
:1055400005460C46B3F1654F3CBF02EB4102B2F198
:10555000654F3FD34FF07F42B2EB400F28BFB2EB15
:10556000410F03D2BDE8F047FFF7BDBA40EA01039F
:105570005B0008BF44F0FF410AD0B2EB400F08BF08
:10558000B2EB410F06D125F0804024F08041054662
:105590000C461FE0B2EB400F12BF5FEA410245F03C
:1055A000FF4004F0004115D04FEA410292EA400367
:1055B00010D4002AACBF4FF09F464FF03E56314604
:1055C000FFF7E9FA054631462046FFF7E4FA0446BC
:1055D00028462146C0F3C752C1F3C753D21A1B2A2B
:1055E00006DD10F0004F14BF54485548BDE8F08761
:1055F00012F11A0F17DA11F0004F06D010F0004F19
:1056000014BF50485048BDE8F08721462846FFF7B0
:10561000F8FA0446FFF7B4FE042808BFFFF7C3FEFC
:105620002046BDE8F0874200B2EB410F25D910F0CB
:10563000004F19BF454F464E464F474E224685F014
:10564000004415460A4680F0004110460A1A5200EE
:10565000B2F1807F3ED248404049DFF804A110F00B
:10566000004F18D04FF03F483846FFF78EFA0746F4
:1056700051463046FFF789FA17E011F0004F04BF9A
:1056800000263746E2D010F0004F19BF354F364E96
:10569000364F374EDAE74FF07C583846FFF723FA9B
:1056A000074651463046FFF71EFA06464146284651
:1056B000FFF771FA2146FFF716FA82462146404667
:1056C000FFF769FA2946FFF763FA5146FFF799FA9F
:1056D000044604E021462846FFF793FA04460146B3
:1056E000FFF759FA80462349FFF755FA2249FFF799
:1056F000FAF94146FFF74FFA2049FFF7F4F941461E
:10570000FFF749FA1E49FFF7EEF94146FFF743FA62
:105710001C49FFF7E8F9054641462046FFF73BFAEA
:105720002946FFF738FA3146FFF7DDF92146FFF742
:10573000DAF93946BDE8F047FFF7D5B9DB0FC9BF45
:10574000DB0FC93FDB0F49C0DB0F49400000C9BF79
:1057500022AAFDB90000C93F22AAFD390060ED3E32
:10576000C30ACE37000049C022AA7DBA00004940D2
:1057700022AA7D3A2DAD65BD8FB8D53D0FB511BEBE
:1057800061C84C3EA8AAAABE2DE9F84304460246C9
:1057900050486946B0EB420F09D94FF0E640B0EBF4
:1057A000420F8CBF4FF0FF300020009034E04A4B96
:1057B00022F0004083422BD948492046FFF7EBF9FD
:1057C000FFF7CAFC0546FFF70CFC00F00300009051
:1057D00043492846FFF7DFF9064642492846FFF7C6
:1057E000DAF9074640492846FFF7D5F980463F4990
:1057F0002846FFF7D0F92146FFF7CAF94146FFF7DF
:10580000C4F93946FFF7C1F93146FFF7BEF902E0A6
:105810001046FFF7CDFD0446009D002D18DA60000C
:10582000B0F17F4F3CBF4FF07E50BDE8F88309D107
:105830004FF00100FFF778FEBDE8F843002108466D
:10584000FFF7DFB92046BDE8F8430121FFF719BA99
:10585000214615F0010F08461DD0FFF79CF90646BA
:105860002349FFF798F92349FFF792F93146FFF7EB
:1058700092F92149FFF737F93146FFF78CF92146B4
:10588000FFF789F92146FFF72EF915F0020F18BF2F
:10589000BDE8F8831AE0FFF77EF904461749FFF7E1
:1058A0007AF91749FFF71FF92146FFF774F91549EF
:1058B000FFF719F92146FFF76EF94FF07E51FFF718
:1058C00012F915F0020F08BFBDE8F88380F0004020
:1058D000BDE8F883B61F927E490E494683F9223F00
:1058E0001A61342C0020A23300A0FD390000C93F0A
:1058F000336D4C39DA82083CA0AA2ABEB93AB2BA52
:10590000CA9F2A3DDDFFFFBE2DE9F04D0F46A0F5F1
:105910000001804604464FF000703E4684B04FF0D0
:105920007E554FF0000B00EB46004FF07F4AB1F17F
:10593000FE4F04D2B0F1804F80F0FA8041E0B0F128
:10594000804F3ED304F1FF40B0F1FE4F1FD200BFA5
:1059500028F00048C6F3C75044467F2809DB972843
:105960007BDAC0F19600012101FA00F0411E3142BC
:1059700009D00120FFF7D8FD04B00021BDE8F04DAB
:105980000846FFF73EB9304218BFFE4DD0E0600038
:1059900000281CBF4FF08070B0EB440F0BD91B21C7
:1059A0004046FFF76EF9804604466FF01A0B10F080
:1059B000004FCDD1BCE0A4F50000B0F1FE4F4CD3B8
:1059C00019E0B0F1007F10D300213046FFF77EFCD4
:1059D00005D16000B6D0BAEB440FB3D9A5E006F00C
:1059E000004040F0FC563746ACE7B0F1807F38BF4E
:1059F000A6F50007A6D324F000416FF0FF40E24B6C
:105A00000A189A420FD326F00042104483420AD863
:105A1000B4F17E5F7DD070007BD0B1F1FF4F02D832
:105A2000B2F1FF4F06D904B039464046BDE8F04D0B
:105A3000FFF759B8B4F1FF4F10D0C6F3C7507F2815
:105A400009DB972812DAC0F19600012101FA00F073
:105A5000411E314206D0002009E069E016F0004FF7
:105A60005ED127E0304218BF012000D1022014F59A
:105A7000000F13D01CB3B4F1004F26D014F1814FA6
:105A800053D04FF0FE40B0EB440F94BF01200020F4
:105A9000012101EBE671884242D10BE016F0004F84
:105AA00002D001283ED03BE0012802BFB74804B035
:105AB000BDE8F08D4FF0FF4004B0BDE8F08D16F06A
:105AC00000400ED104B0BDE8F08DB6F1FF4F27D0F5
:105AD00016F5000F05D016F0004F18D008B10128B8
